:100000000C9463000C948B000C948B000C94A2074E
:100010000C94A2070C94A2070C948B000C948B00F8
:100020000C948B000C948B000C948B000C948B0024
:100030000C948B000C948B000C948B000C948B0014
:100040000C9400070C948B000C9470070C944A07D6
:100050000C948B000C948B000C948B000C948B00F4
:100060000C948B000C948B000000000024002700EF
:100070002A0000000008000201000003040700003D
:1000800000000000000000000000230026002900FE
:1000900000000000250028002B00040404040404D0
:1000A0000404020202020202030303030303010227
:1000B00004081020408001020408102001020408F6
:1000C00010204808820B11241FBECFEFD8E0DEBFFE
:1000D000CDBF22E0AAEAB1E001C01D92A53CB20763
:1000E000E1F711E0A0E0B1E0E0EFFCE102C0059033
:1000F0000D92AA3AB107D9F710E0C2E6D0E004C0E9
:100100002197FE010E942E0CC136D107C9F70E942B
:1001100015090C946B0E0C9400000895833081F047
:1001200028F4813099F08230A9F008958730A9F041
:100130008830C9F08430B1F4809180008F7D03C095
:10014000809180008F7780938000089584B58F77A9
:1001500084BD089584B58F7DFBCF8091B0008F77EB
:100160008093B00008958091B0008F7DF9CFCF9338
:10017000DF9390E0FC01E255FF4F249186569F4F9C
:10018000FC0184918823D1F090E0880F991FFC0135
:10019000E859FF4FA591B491FC01E057FF4FC5917D
:1001A000D49161110EC09FB7F8948C91E22FE09525
:1001B0008E238C932881E223E8839FBFDF91CF9128
:1001C00008958FB7F894EC91E22BEC938FBFF6CFA4
:1001D0003FB7F8948091ED019091EE01A091EF016D
:1001E000B091F00126B5A89B05C02F3F19F00196EC
:1001F000A11DB11D3FBFBA2FA92F982F8827BC0181
:10020000CD01620F711D811D911D42E0660F771FA8
:10021000881F991F4A95D1F708958F929F92AF92A8
:10022000BF92CF92DF92EF92FF924B015C010E944E
:10023000E8006B017C010E94E8006C197D098E09C1
:100240009F09683E734081059105A8F321E0821A59
:100250009108A108B10888EEC80E83E0D81EE11C01
:10026000F11C81149104A104B10429F7FF90EF90CF
:10027000DF90CF90BF90AF909F908F900895AF92F6
:10028000BF92CF92DF92EF92FF920F931F93CF9383
:10029000DF936C017B018B01040F151FEB015E01E5
:1002A000AE18BF08C017D10759F06991D601ED917A
:1002B000FC910190F081E02DC6010995892B79F719
:1002C000C501DF91CF911F910F91FF90EF90DF90CB
:1002D000CF90BF90AF900895FC01538D448D252F92
:1002E00030E0842F90E0821B930B541710F0CF96D0
:1002F000089501970895FC01918D828D981761F002
:10030000A28DAE0FBF2FB11D5D968C91928D9F5F18
:100310009F73928F90E008958FEF9FEF0895FC01F7
:10032000918D828D981731F0828DE80FF11D858DAA
:1003300090E008958FEF9FEF0895FC01918D228D3D
:10034000892F90E0805C9F4F821B91098F739927C2
:10035000089585EF91E00E949D0121E0892B09F429
:1003600020E0822F089580E090E0892B29F00E9400
:10037000A90181110C9400000895FC01A48DA80F1F
:10038000B92FB11DA35ABF4F2C91848D90E00196D7
:100390008F739927848FA689B7892C93A089B189F7
:1003A0008C91837080648C93938D848D981306C098
:1003B0000288F389E02D80818F7D80830895EF92FC
:1003C000FF920F931F93CF93DF93EC0181E0888F0F
:1003D0009B8D8C8D98131AC0E889F989808185FFDF
:1003E00015C09FB7F894EE89FF896083E889F98981
:1003F00080818370806480839FBF81E090E0DF9183
:10040000CF911F910F91FF90EF900895F62E0B8DD5
:1004100010E00F5F1F4F0F731127E02E8C8D8E1190
:100420000CC00FB607FCFACFE889F989808185FFF7
:10043000F5CFCE010E94BD01F1CFEB8DEC0FFD2F6A
:10044000F11DE35AFF4FF0829FB7F8940B8FEA89B2
:10045000FB8980818062CFCFCF93DF93EC01888DC1
:100460008823B9F0AA89BB89E889F9898C9185FD2F
:1004700003C0808186FD0DC00FB607FCF7CF8C91BD
:1004800085FFF2CF808185FFEDCFCE010E94BD01B7
:10049000E9CFDF91CF91089520919202309193029C
:1004A0002817390771F49091EA018091EB019817B0
:1004B00041F0E091EA01F0E0E655FE4F808190E0E6
:1004C00008958FEF9FEF08950895EF92FF920F9395
:1004D0001F93CF93DF93DC015C96ED90FC905D97CA
:1004E000E114F10479F481E090E013969C938E93EB
:1004F000129790E080E0DF91CF911F910F91FF90D4
:10050000EF9008955196ED91FC91529750968C91F1
:100510005097982F90950FB75E962C915E97122F5B
:10052000127021FD6095F8942081112319F1282B78
:100530002083E7012197F1F728E0462F50E0308132
:1005400060FF1AC0382B3083E7012197F1F7BA0119
:1005500075956795215089F7112381F08081892352
:1005600080830FBF5C968D919C910197F1F781E09C
:1005700090E0C1CF2923DCCF3923E5CF9081892BAF
:10058000EFCF20919202309193022817390771F42E
:100590008091EB012091EA0190E0805C9F4F821BEB
:1005A000910960E470E00E94E40B089590E080E01F
:1005B0000895209192023091930228173907B9F4D7
:1005C0009091EA018091EB01981789F0E091EA019E
:1005D000F0E0E655FE4F80812091EA0130E02F5F88
:1005E0003F4F2F7333272093EA0190E008958FEF58
:1005F0009FEF08952FB7F8948091F1019091F20147
:10060000A091F301B091F4012FBF80939C029093CD
:100610009D02A0939E02B0939F0284E992E00E9403
:10062000D90297FF26C02FB7F8948091F1019091DD
:10063000F201A091F301B091F4012FBF40919C020F
:1006400050919D0260919E0270919F02841B950BB8
:10065000A60BB70B409198025091990260919A02B3
:1006600070919B0284179507A607B707B0F28FEF2A
:100670009FEF089590E080E00895CF93DF93FC0111
:100680004481558141155105D9F061157105C1F0BD
:100690009A016417750708F49B01EC018881998120
:1006A000421B530B5D834C83BC01620F731F0E947E
:1006B000370EE881F9818C819D81E80FF91F108246
:1006C000DF91CF910895FC0180819181009711F015
:1006D0000C94D00C0895AF92BF92CF92DF92EF921C
:1006E000FF920F931F93CF93DF93DC01CD90DC90AB
:1006F0001197C114D10439F01496CD91DC918C017D
:100700007601209761F4DF91CF911F910F91FF90B7
:10071000EF90DF90CF90BF90AF9008957501570193
:10072000BFEFAB1ABB0AF7018081082E000C990BB2
:100730000E94A10B892B91F72197CC0DDD1D88819B
:10074000082E000C990B0E94A10B892B29F0CE15C5
:10075000DF0510F02197F3CFAE014F5F5F4F4E19C9
:100760005F09D80115965C934E931497CE14DF045D
:1007700020F4B701C6010E941E0ED801ED91FC9134
:10078000119714968D919C91E80FF91F1082BBCFA1
:10079000FB0101900020E9F73197AF01461B570B91
:1007A000DC01ED91FC910280F381E02D09948F92A0
:1007B0009F92AF92BF92CF92DF92EF92FF920F93F0
:1007C0001F93CF93DF93CDB7DEB7A1970FB6F89401
:1007D000DEBF0FBECDBF6C01990FEE08FF08F7FE1C
:1007E0004BC06DE285EF91E00E94DF018C01222772
:1007F0003327A9012C193D094E095F0919A2CE0121
:1008000081967C019AE0892E912CA12CB12CCA01F1
:10081000B901A50194010E94F80B605DF701629394
:100820007F01211531054105510589F790E080E0F0
:10083000309729F0BF0185EF91E00E94C803080FAF
:10084000191F6AE271E085EF91E00E94C803800FF2
:10085000911FA1960FB6F894DEBF0FBECDBFDF91FA
:10086000CF911F910F91FF90EF90DF90CF90BF90AD
:10087000AF909F908F900895A701960119A28E01C5
:100880000F5D1F4F8AE0C82ED12CE12CF12CCA013C
:10089000B901A70196010E94F80B605DF80162930F
:1008A0008F01211531054105510589F7309739F040
:1008B000BF0185EF91E00E94C8038C01C2CF10E018
:1008C00000E0BFCF0F931F93CF93DF93EC010E9403
:1008D000C8038C016AE271E0CE010E94C803800F58
:1008E000911FDF91CF911F910F9108950F931F9347
:1008F000CF93DF93EC01FB014481558160817181CD
:10090000E881F9810280F381E02D09958C016AE28A
:1009100071E0CE010E94C803800F911FDF91CF913B
:100920001F910F910895CF93DF93EC016DE271E079
:1009300084E992E00E94C80364E670E080E090E001
:100940000E940D0168E371E084E992E00E94620474
:1009500064E670E080E090E00E940D01BE0184E951
:1009600092E00E94760464E670E080E090E00E94ED
:100970000D016AE184E992E00E9465026AE271E099
:1009800084E992E00E94C80364E670E080E090E0B1
:100990000E940D016AE271E084E992E0DF91CF915B
:1009A0000C94C803FC0124813581232B39F421E008
:1009B000FB018081882349F020E007C0808191817C
:1009C0000E94270E21E0892BB9F7822F08950F93FB
:1009D0001F93CF93DF93EC0188819981009759F0A1
:1009E0002A813B812617370730F081E0DF91CF91D4
:1009F0001F910F9108958B016F5F7F4F0E94590DDA
:100A0000009759F0998388831B830A832C813D8149
:100A1000232B59F7FC011082E8CF80E0E7CFEF925B
:100A2000FF920F931F93CF93DF93EC017B018A0119
:100A3000BA010E94E70428813981811114C021156F
:100A4000310519F0C9010E94D00C198218821D824B
:100A50001C821B821A82CE01DF91CF911F910F91D0
:100A6000FF90EF9008951D830C83B701C9010E9488
:100A7000300EF1CFFC011182108213821282158296
:100A80001482F2E08B3B9F0769F06091BB0270918A
:100A9000BC026115710531F04091BF025091C00256
:100AA0000C940F050895FC011182108213821282AA
:100AB00015821482FB0101900020E9F73197AF0104
:100AC000461B570B0C940F05AF92BF92CF92DF924B
:100AD000EF92FF920F931F93CF93DF93EC016B0183
:100AE0005A0179012417350720F48B2D5901E42E82
:100AF000F82E6CE271E0CE010E945305D6011496E7
:100B00000D911C91A016B10628F5E016F10608F427
:100B10008701D601ED91FC911197E00FF11FF08054
:100B200010826D917C916A0D7B1D61157105F1F04C
:100B3000FB0101900020E9F73197AF01461B570BED
:100B4000CE010E940F05F60180819181080F191FC7
:100B5000D801FC92CE01DF91CF911F910F91FF90B0
:100B6000EF90DF90CF90BF90AF90089588819981EA
:100B7000009711F00E94D00C198218821D821C82ED
:100B80001B821A82E0CFDF92EF92FF920F931F93A6
:100B9000CF93DF93CDB7DEB762970FB6F894DEBF81
:100BA0000FBECDBF6CE271E0CE010D960E945305E1
:100BB0000E94FA0297FD1BC089831A8209891A894B
:100BC0000F5F1F4FB801CE010D960E94E7048823E6
:100BD00079F32D853E8589899A89BE016F5F7F4FA4
:100BE000820F931F0E94300E1A8B098BE1CF66E3B0
:100BF00071E0CE0101960E94530589899A89892B5B
:100C000009F4AFC00D851E8569817A81C8010E94F3
:100C1000510E009709F4A5C09C01201B310B8901DE
:100C2000CE0101960E946303B8016E5F7F4FCE0133
:100C30000D960E943D03CE010D960E946B036FE45A
:100C400071E0CE010D960E94D2048111C7C062E509
:100C500071E0CE0101960E94530589899A89892BFA
:100C600009F482C00D851E8569817A81C8010E94C0
:100C7000510E009709F478C0FC01E01BF10B8F01C5
:100C8000CE0101960E946303980150E040E0BE014E
:100C9000635F7F4FCE0107960E946405CE010796E1
:100CA0000E946B03B8016E5F7F4FCE010D960E94CC
:100CB0003D0364E571E0CE0107960E94D2048823CB
:100CC00009F488C0E988FA88E114F10409F04FC0FA
:100CD0004FEF5FEF29893A894E5F5F4FBE01635F37
:100CE0007F4FCE0101960E9464058091BB029091D6
:100CF000BC02009709F457C069817A8161157105BA
:100D000009F44FC04091BD025091BE022D813E8139
:100D10004217530708F445C00E94300E8D819E8112
:100D20009093C0028093BF021E821D82CE01019665
:100D30000E9463030091BB021091BC0201151105D2
:100D400009F448C0F80181918F01882309F442C059
:100D5000082E000C990B0E94160EF8013197808323
:100D6000F1CF0FEF1FEF5CCF0FEF1FEF89CFED85B6
:100D7000FE85EE0DFF1DD08010820D851E856DE075
:100D800070E0C8010E94460E0E0D1F1DF801D082B2
:100D9000009709F49DCF2D853E85AC01421B530B76
:100DA00099CF0E94D00C89819A819093BC02809344
:100DB000BB028B819C819093BE028093BD028D818A
:100DC0009E819093C0028093BF021A8219821C8276
:100DD0001B82AACFCE0107960E946303CE010D9617
:100DE0000E94630362960FB6F894DEBF0FBECDBFBC
:100DF000DF91CF911F910F91FF90EF90DF900895B9
:100E00001F920F920FB60F9211242F933F938F933F
:100E10009F93AF93BF938091F1019091F201A091C4
:100E2000F301B091F4013091EC0123E0230F2D3751
:100E300058F50196A11DB11D2093EC018093F1019D
:100E40009093F201A093F301B093F4018091ED012E
:100E50009091EE01A091EF01B091F0010196A11DDA
:100E6000B11D8093ED019093EE01A093EF01B0933B
:100E7000F001BF91AF919F918F913F912F910F9072
:100E80000FBE0F901F90189526E8230F0296A11D04
:100E9000B11DD2CF1F920F920FB60F9211242F9334
:100EA0003F934F935F936F937F938F939F93AF93F2
:100EB000BF93EF93FF9385EF91E00E94BD01FF91F7
:100EC000EF91BF91AF919F918F917F916F915F91C2
:100ED0004F913F912F910F900FBE0F901F9018953B
:100EE0001F920F920FB60F9211242F938F939F93FF
:100EF000EF93FF93E0910502F09106028081E0916B
:100F00000B02F0910C0282FD1BC0908180910E02B9
:100F10008F5F8F7320910F02821741F0E0910E02D4
:100F2000F0E0EB50FE4F958F80930E02FF91EF9112
:100F30009F918F912F910F900FBE0F901F9018953A
:100F40008081F4CF1F920F920FB60F9211242F932E
:100F50003F934F935F936F937F938F939F93AF9341
:100F6000BF93EF93FF93E0919202F0919302309739
:100F700049F0A685B7858585968D91FF14C09C9113
:100F80008923A1F4FF91EF91BF91AF919F918F9130
:100F90007F916F915F914F913F912F910F900FBE75
:100FA0000F901F9018959C91892361F7A389B489AC
:100FB0009C918589809589238C938689978901974F
:100FC000F1F7608D718DA685B785558538E020E0F5
:100FD000CB010197F1F7822F90E095958795282F07
:100FE0004C91452309F02068315091F7868D81FDA1
:100FF00020958091EB0190E001968F7399273091B5
:10100000EA01381799F0A091EB01B0E0A655BE4F68
:101010002C938093EB01828D938D0197F1F7A38937
:10102000B4898C919589892B8C93ACCF868D816006
:10103000868FF1CF1F93CF93DF93282F30E0F901F4
:10104000EE58FF4F8491F901E255FF4FD491F90119
:10105000E656FF4FC491CC23A9F0162F81110E94B0
:101060008E00EC2FF0E0EE0FFF1FE057FF4FA59131
:10107000B4918FB7F894EC91111108C0D095DE238C
:10108000DC938FBFDF91CF911F910895DE2BF8CFB6
:10109000CF92DF92EF92FF921092F8011092F70137
:1010A00098EEC92E93E0D92EE12CF12CC092F901D3
:1010B000D092FA01E092FB01F092FC018AE091E00B
:1010C0009093F6018093F50185EC90E090930202F5
:1010D0008093010284EC90E09093040280930302D9
:1010E00080EC90E0909306028093050281EC90E002
:1010F000909308028093070282EC90E090930A029A
:101100008093090286EC90E090930C0280930B028E
:1011100010920E0210920F02109210021092110201
:101120006CE271E08BEB92E00E94530584E090E06A
:101130009093B4028093B30287E090E09093B6025C
:101140008093B50288E090E09093B8028093B70254
:101150001092970210929602C0929802D092990231
:10116000E0929A02F0929B028CE191E090939502BA
:10117000809394021092AB021092AA021092AD02D8
:101180001092AC021092AF021092AE021092B10215
:101190001092B0026091B2026E7F6D7F6093B202D6
:1011A0006695617081E0682788E00E941A0861E016
:1011B00088E00E94B700E6EBF0E0E491E093A4023F
:1011C000E2EAF0E0E491F0E0EE0FFF1FE057FF4F9E
:1011D000859194919093A6028093A50260E087E0A8
:1011E0000E94B7008091B20281FD04C061E087E0F7
:1011F0000E941A0887E08093A002E5EBF0E0E491FA
:10120000E093A102E1EAF0E0E491F0E0EE0FFF1FCD
:10121000EA57FF4F859194919093A3028093A20285
:10122000FF90EF90DF90CF900895CF93DF93CDB7ED
:10123000DEB76E970FB6F894DEBF0FBECDBF7894C1
:1012400084B5826084BD84B5816084BD85B58260CB
:1012500085BD85B5816085BD80916E00816080937C
:101260006E001092810080918100826080938100E5
:1012700080918100816080938100809180008160F5
:10128000809380008091B10084608093B100809150
:10129000B00081608093B00080917A008460809378
:1012A0007A0080917A00826080937A0080917A003F
:1012B000816080937A0080917A00806880937A00C0
:1012C0001092C10060E08091B3020E94B700E091EB
:1012D0000502F091060282E08083E0910102F09124
:1012E00002021082E0910302F091040287E68083FB
:1012F00010920D02E0910902F0910A0286E08083CB
:10130000E0910702F0910802808180618083E09182
:101310000702F0910802808188608083E0910702D3
:10132000F0910802808180688083E0910702F0914B
:10133000080280818F7D80831092AF021092AE02EE
:101340001092AD021092AC021092AB021092AA025F
:101350008DEC90E09093B1028093B0029091A00246
:10136000963108F047C025E530E03093AB0220937A
:10137000AA022BEC30E03093AD022093AC0220E9BE
:1013800030E03093AF022093AE022091680084E0F9
:10139000983048F031E09E3008F430E081E001C040
:1013A000880F3A95EAF7822B809368002DE630E0AB
:1013B000983050F02BE630E09E3030F02CE630E0F4
:1013C000963110F030E020E03093A8022093A7027D
:1013D000292F30E0983008F05AC081E001C0880F12
:1013E0009A95EAF78093A9028091B0029091B10298
:1013F0000197F1F78091AE029091AF02892B49F1EC
:10140000E0919202F091930282E0E439F80709F149
:10141000309739F0A389B4899C9185898095892377
:101420008C938091B2028E7F8093B2021092EB0176
:101430001092EA0184E992E09093930280939202E1
:10144000E091A702F091A80280819091A902892BD6
:1014500080836DE271E084E992E00E94C80369E54F
:1014600071E085EF91E00E9462048091B302909157
:10147000B4020E94D70300E010E084E992E00E94E9
:10148000C1026C01892B81F00E94C305F6CF9E300A
:1014900040F42850310981E001C0880F2A95EAF70D
:1014A000A1CF2E503109F7CFCE0101960E943A0507
:1014B000BE016F5F7F4F85EF91E00E947604CE0101
:1014C00001960E94630360ED77E080E090E00E9467
:1014D0000D01CE0101960E943A0562E771E0CE014E
:1014E00001960E94D204FF24F394811137C0CE01EB
:1014F00007960E943A0565E771E0CE0107960E94C3
:10150000D204FF24F394811125C0CE010D960E94D0
:101510003A0568E771E0CE010D960E94D204FF24DF
:10152000F394811113C0CE0143960E943A056BE7F4
:1015300071E0CE0143960E94D204FF24F3948111FE
:1015400001C0F12CCE0143960E946303CE010D969B
:101550000E946303CE0107960E946303CE010196A9
:101560000E946303FF2009F4B5C02091B3023091BB
:10157000B4023327F901EE58FF4F8491F901E25587
:10158000FF4FE490F901E656FF4FB490BB2099F06D
:1015900081110E948E00EB2DF0E0EE0FFF1FEA5745
:1015A000FF4FA591B491EC91EE2291E080E009F417
:1015B00090E0C92ED82ED092BA02C092B902C601CC
:1015C0000E94D7038091B9029091BA02892B09F049
:1015D00081C06EE771E0CE0101960E945305CE01F5
:1015E00001960E949304CE0101960E9463036DE868
:1015F00071E085EF91E00E9462048091B9029091C0
:10160000BA02019709F460C084E992E00E94C10225
:10161000892B19F00E94C305F7CFCE0101960E94D5
:101620003A0561E971E0CE0101960E94D204EF2CE7
:10163000811143C0CE0107960E943A0565E971E029
:10164000CE0107960E94D204811133C0CE010D96BF
:101650000E943A0569E971E0CE010D960E94D2041C
:10166000811123C0CE0143960E943A056DE971E0D5
:10167000CE0143960E94D204811113C0CE01499637
:101680000E943A0561EA71E0CE0149960E94D204B7
:10169000EE24E394811101C0E12CCE0149960E9411
:1016A0006303CE0143960E946303CE010D960E9410
:1016B0006303CE0107960E946303CE0101960E9448
:1016C0006303EE2009F499CF65EA71E085EF91E0BC
:1016D0000E94620460ED77E080E090E00E940D01DE
:1016E00060ED77E080E090E00E940D0101151105AA
:1016F00009F4C3CE0E94A901882309F4BECE0E943A
:101700000000BBCE8CE191E090939502809394020F
:1017100080919202909193028459924071F4E091E9
:10172000A702F091A80290818091A9028095892357
:10173000808310929302109292028BEB92E00C94B1
:10174000630391110C94AA0B803219F089508550D3
:10175000C8F708959927882708952F923F924F92AE
:101760005F926F927F928F929F92AF92BF92CF9231
:10177000DF92EF92FF920F931F93CF93DF93CDB73A
:10178000DEB7CA1BDB0B0FB6F894DEBF0FBECDBFB2
:1017900009942A88398848885F846E847D848C8483
:1017A0009B84AA84B984C884DF80EE80FD800C818C
:1017B0001B81AA81B981CE0FD11D0FB6F894DEBF6F
:1017C0000FBECDBFED01089597FB072E16F40094D0
:1017D00007D077FD09D00E941A0C07FC05D03EF413
:1017E000909581959F4F0895709561957F4F0895CD
:1017F000A1E21A2EAA1BBB1BFD010DC0AA1FBB1F15
:10180000EE1FFF1FA217B307E407F50720F0A21B86
:10181000B30BE40BF50B661F771F881F991F1A94F3
:1018200069F760957095809590959B01AC01BD011D
:10183000CF010895AA1BBB1B51E107C0AA1FBB1F04
:10184000A617B70710F0A61BB70B881F991F5A954C
:10185000A9F780959095BC01CD010895EE0FFF1F6B
:101860000590F491E02D09940F931F93CF93DF938C
:101870008230910510F482E090E0E091C302F09193
:10188000C40230E020E0B0E0A0E0309799F42115E8
:10189000310509F44AC0281B390B24303105D8F52D
:1018A0008A819B816115710589F1FB019383828394
:1018B000FE0111C0408151810281138148175907EF
:1018C000E0F04817590799F4109761F012960C93BD
:1018D000129713961C933296CF01DF91CF911F91EF
:1018E0000F9108950093C3021093C402F4CF211501
:1018F000310551F04217530738F0A901DB019A0175
:10190000BD01DF01F801C1CFEF01F9CF9093C4020F
:101910008093C302CDCFFE01E20FF31F8193919319
:101920002250310939832883D7CF2091C1023091C9
:10193000C202232B41F42091020130910301309324
:10194000C2022093C10220910001309101012115B2
:10195000310541F42DB73EB7409104015091050186
:10196000241B350BE091C102F091C202E217F3078C
:10197000A0F42E1B3F0B2817390778F0AC014E5FFF
:101980005F4F2417350748F04E0F5F1F5093C20278
:101990004093C102819391939FCFF0E0E0E09CCF10
:1019A000CF93DF930097E9F0FC0132971382128204
:1019B000A091C302B091C402ED0130E020E0109785
:1019C000A1F420813181820F931F2091C1023091B7
:1019D000C2022817390709F061C0F093C202E093F0
:1019E000C102DF91CF910895EA01CE17DF07E8F534
:1019F0004A815B819E0141155105B1F7E901FB83E5
:101A0000EA8349915991C40FD51FEC17FD0761F482
:101A1000808191810296840F951FE90199838883C3
:101A2000828193819B838A83F0E0E0E012968D911E
:101A30009C9113970097B9F52D913C911197CD0189
:101A40000296820F931F2091C1023091C202281783
:101A5000390739F6309751F51092C4021092C3023B
:101A6000B093C202A093C102BCCFD383C283408192
:101A70005181840F951FC817D90761F44E5F5F4FDE
:101A800088819981480F591F518340838A819B81A6
:101A9000938382832115310509F0B0CFF093C402FE
:101AA000E093C3029ECFFD01DC01C0CF13821282FE
:101AB000D7CFB0E0A0E0EFE5FDE00C94AF0B8C01D8
:101AC000009751F4CB010E94340C8C01C801CDB7B2
:101AD000DEB7E0E10C94CB0BFC01E60FF71F9C0195
:101AE00022503109E217F30708F49DC0D901CD91C6
:101AF000DC911197C617D70798F0C530D10530F3A0
:101B0000CE0104978617970708F3C61BD70B2297B9
:101B1000C193D1936D937C93CF010E94D00CD6CF0B
:101B20005B01AC1ABD0A4C018C0E9D1EA091C30234
:101B3000B091C402512C412CF12CE12C109731F5BD
:101B40008091C1029091C2028815990509F05CC08C
:101B50004616570608F058C0809100019091010187
:101B6000009741F48DB79EB7409104015091050153
:101B7000841B950BE817F90708F055C0F093C202D3
:101B8000E093C102F90171836083A0CF8D919C9194
:101B9000119712966C90129713967C901397A81534
:101BA000B90559F56C0142E0C40ED11CCA14DB041E
:101BB00020F1AC014A195B09DA011296159780F001
:101BC0006282738251834083D9016D937C93E114C7
:101BD000F10471F0D7011396FC93EE93129776CF30
:101BE00022968C0F9D1FF90191838083F301EFCF23
:101BF000F093C402E093C30269CF4816590608F473
:101C00002C017D01D3019ACFCB010E94340C7C01C1
:101C1000009749F0AE01B8010E941E0EC8010E9453
:101C2000D00C870153CF10E000E050CF9111089500
:101C300081548A5108F4805E855A0895FB01DC01C5
:101C400002C001900D9241505040D8F70895FB0119
:101C5000DC018D91019080190110D9F3990B089541
:101C6000FB01DC0101900D920020E1F70895FB01DA
:101C7000DC014150504048F001900D920020C9F71E
:101C800001C01D9241505040E0F70895FC0181E0F1
:101C900090E00190061609F4CF010020D1F70197DA
:101CA0000895FB0151915523A9F0BF01DC014D912D
:101CB00045174111E1F759F4CD010190002049F099
:101CC0004D9140154111C9F3FB014111EFCF81E066
:101CD00090E00197089510E0C2E6D0E004C0FE0154
:101CE0000E942E0C2196C336D107C9F7F894FFCF76
:101CF0000000C502800000000000DF013F016C0110
:101D00002C029D017B018F010000000065023F0154
:101D10003A036402C102D9024C020D0A0041542B5D
:101D2000434D47463D310D0041542B434D47533DF4
:101D3000222B333633303336353338383422004FA4
:101D40004B003A002B434D5400496E697469616C35
:101D5000697A696E672069732066696E6973686560
:101D600064004F4E004F6E006F6E006F4E004120BA
:101D700070756D70206C65616C6C742100534D53EF
:101D8000004F4646004F6666006F4646006F466647
:0A1D9000006F664600454E44000057
:00000001FF
